:020000040800F2
:10000000002000206D0300089302000895020008FC
:1000100000000000000000000000000000000000E0
:10002000000000000000000000000000970200082F
:100030000000000000000000990200089B02000878
:10004000BD030008BD030008BD030008BD03000890
:10005000BD030008BD030008BD030008BD03000880
:10006000BD030008BD030008BD030008BD03000870
:10007000A5020008BD03000800000000BD03000841
:1000800000000000C50200080000000000000000A1
:10009000BD03000800000000BD030008BD03000808
:1000A000BD030008BD030008BD030008BD03000830
:1000B000BD030008BD030008BD030008BD03000820
:1000C00010B5064C2378002B07D1054B002B02D02E
:1000D000044800E000BF0123237010BD040000208D
:1000E0000000000008040008044B10B5002B03D0EA
:1000F0000349044800E000BF10BDC04600000000F6
:1001000008000020080400085338FDDA704730BFAB
:10011000024A1368013313607047C046280000206C
:10012000F8B54D4AD36A01200343D362A023DB050F
:1001300019684A4C214019601C688021C90021437C
:1001400019605969202529435961D16A0224214344
:10015000D16243490E68C027BE430E600C683C4321
:100160000C600C683F4E34400C600E68C024A40143
:1001700034430C6019683C4C214019601C68C02154
:1001800089000C431C60536B03435363374B1C685B
:10019000374E34401C601C68214319601C6870266F
:1001A000B4431C601968314319601C68802109023E
:1001B000214319601968014319602E4B1968802486
:1001C00064000C431C601C6830218C431C6019685F
:1001D000294319601968284C21401960196808439F
:1001E0001860936B10210B439363244A116880239A
:1001F0009B020B431360224B18688021C9030843FC
:100200001860986801439960D86880218903014388
:10021000D96019681B4801401960116880235B018F
:100220000B431360184C2000FFF76EFF2000FFF710
:100230006BFF2000FFF768FF2000FFF765FFA02499
:10024000E405636920252B436361FFF760FF636961
:10025000AB436361E6E7C04600100240FFF3FFFFD7
:1002600000040050FFCFFFFFFFFCFFFF1C00014018
:10027000FFF8FFFF18000140FF7FFFFF00E100E0F3
:1002800000040140FFFFDFFF8096980010B5FFF7E4
:1002900047FF7047FEE77047704710B5FFF738FF1C
:1002A00010BD0000044A136804490B401360044A5F
:1002B000136801331360704700040140FFFFBFFF64
:1002C000200000200E4A136901218B4313610D4B5E
:1002D0005B68092B10DD0A490B68012293430B6010
:1002E000094B1A60094A11688023DB030B43136032
:1002F000044B00225A6070470133024A5360FAE708
:1003000000100040200000200000002000040140F8
:10031000104B1968802252000A431A60DA680E49AD
:100320000A40DA601A680D490A401A609A68012189
:100330008A439A601A680A490A401A60DA680949C9
:100340000A40DA6000221A61074B802212059A6087
:100350007047C046001002400C40FF88F6FFF6FED2
:10036000FFFFFBFFFFFF02FF00ED00E00D488546A9
:10037000002103E00C4B5B58435004310B480C4BFD
:1003800042189A42F6D30B4A02E00023136004326B
:10039000094B9A42F9D3FFF7BBFF00F011F8FFF7C2
:1003A00075FFFEE700200020280400080000002060
:1003B00004000020040000202C000020FEE70000C4
:1003C00070B500260C4D0D4C641BA410A64209D13B
:1003D000002600F019F80A4D0A4C641BA410A6422E
:1003E00005D170BDB300EB5898470136EEE7B30076
:1003F000EB5898470136F2E7200400082004000873
:100400002004000824040008F8B5C046F8BC08BC65
:100410009E467047F8B5C046F8BC08BC9E4670477B
:04042000E9000008E7
:04042400C10000080B
:0404280001000000CF
:040000050800036D7F
:00000001FF
