:020000040800F2
:1000000000200020E90200083F0200084102000829
:1000100000000000000000000000000000000000E0
:100020000000000000000000000000004302000883
:100030000000000000000000450200084702000820
:1000400039030008390300083903000839030008A0
:100050003903000839030008390300083903000890
:100060003903000839030008390300083903000880
:10007000510200083903000800000000390300089D
:10008000000000003903000800000000000000002C
:100090003903000800000000390300083903000894
:1000A0003903000839030008390300083903000840
:1000B0003903000839030008390300083903000830
:1000C00010B5064C2378002B07D1054B002B02D02E
:1000D000044800E000BF0123237010BD0000002091
:1000E0000000000084030008044B10B5002B03D06F
:1000F0000349044800E000BF10BDC04600000000F6
:1001000004000020840300085338FDDA7047000023
:10011000024A1368013313607047C0462400002070
:1001200070B53A4BDA6A01242243DA62A022D20582
:10013000116837480140116010688021C9000143EF
:1001400011605169202001435161DA6A02210A439A
:10015000DA62304A1068C025A8431060116829434C
:10016000116011682C48014011601068C02189019C
:10017000014311605A6B012252425A63996B9A6390
:10018000196B1A63254B1A6825490A401A601A68C8
:10019000C0218900114319601868702290431860CB
:1001A0001968114319601A68802109021143196006
:1001B0001A6822431A601B4A116880235B010B43B3
:1001C000136010E0A022D205536920218B435361B4
:1001D00010E0A022D205536920210B435361124B3A
:1001E0001B68272B11DC1148FFF78EFF104B1B6893
:1001F000012BE7D0094B1B685B00EAD5A022D20592
:10020000536920218B435361E9E770BD0010024020
:10021000FFF3FFFF00040050FFCFFFFF1C00014071
:10022000FFF8FFFF00E100E020000020A0860100B1
:100230001C00002010B5FFF773FF002010BD7047B1
:10024000FEE77047704710B5FFF762FF10BD000072
:100250000A4B1A680A490A401A600A4A1268920F41
:1002600001211140084A11601868802149010143A9
:1002700019605368013353607047C04600E100E0E5
:10028000FFEFFFFF1C0001401C000020104B19680D
:10029000802252000A431A60DA680E490A40DA6086
:1002A0001A680D490A401A609A6801218A439A60C7
:1002B0001A680A490A401A60DA6809490A40DA608D
:1002C00000221A61074B802212059A607047C046CF
:1002D000001002400C40FF88F6FFF6FEFFFFFBFF18
:1002E000FFFF02FF00ED00E00D488546002103E01E
:1002F0000C4B5B58435004310B480C4B42189A424C
:10030000F6D30B4A02E0002313600432094B9A42F1
:10031000F9D3FFF7BBFF00F011F8FFF78BFFFEE703
:1003200000200020A403000800000020000000209E
:100330000000002028000020FEE7000070B5002625
:100340000C4D0D4C641BA410A64209D1002600F0F0
:1003500019F80A4D0A4C641BA410A64205D170BDC1
:10036000B300EB5898470136EEE7B300EB589847D7
:100370000136F2E79C0300089C0300089C03000878
:10038000A0030008F8B5C046F8BC08BC9E467047FC
:0C039000F8B5C046F8BC08BC9E4670479B
:04039C00E90000086C
:0403A000C100000890
:04000005080002E904
:00000001FF
