:020000040800F2
:1000000000200020F10A0008B5070008B707000823
:1000100000000000000000000000000000000000E0
:10002000000000000000000000000000B907000808
:100030000000000000000000BB070008BD0700082A
:10004000410B0008410B0008410B0008410B000860
:10005000410B0008930A0008910A0008A90900084A
:10006000410B0008410B0008410B0008410B000840
:10007000C5070008410B000800000000410B000804
:1000800000000000A50800080000000000000000BB
:10009000410B000800000000410B0008410B000864
:1000A000410B0008410B0008410B0008A50900089E
:1000B000410B0008410B0008410B0008410B0008F0
:1000C00010B5064C2378002B07D1054B002B02D02E
:1000D000044800E000BF0123237010BD040000208D
:1000E000000000008C0B0008044B10B5002B03D05F
:1000F0000349044800E000BF10BDC04600000000F6
:10010000080000208C0B00085338FDDA704730BF20
:10011000024A1368013313607047C0465400002040
:100120000E4B9B69DB07FBD40C4B5B68DB0704D5EC
:100130000A4B0B4ADA600B4ADA600B4B1A680B4B1E
:100140001A600B4A12685A60044B9B69DB07FBD4A8
:10015000024A536801210B4353607047002002405C
:10016000EFCDAB890504030204000808200000203D
:1001700008000808F8B5FFF7D3FF274A536B01269C
:100180003343536325494B69254803404B614B6911
:100190008024A40123434B61D36A04200343D36228
:1001A000204803689B009B0803601F4B80251D604F
:1001B0001E4BDF6880252D022F43DF601F683D4303
:1001C0001D601B4DEE6005681A4F3D4005600768D5
:1001D00080256D053D4305604569174F3D404561EC
:1001E000506B304350634869F025A8434861486923
:1001F000E03D28434861D16A02200143D1620F49A2
:100200000A680F4802400A60DA682243DA601A6816
:1002100014431C60F8BDC0460010024000000140BD
:10022000FF0FFFFF0008005000E100E00004014064
:1002300020000020FFFFFFCFFFBFFFFF00040050A2
:10024000FFFFFFF30C4B00221A6101210B4B1960D9
:100250000B4A936B1020034393630A4A1068802370
:100260009B0203431360084BDA680A43DA601A689A
:100270000A431A607047C046200000204400002056
:100280000010024000E100E000100040124B1B692A
:10029000AF229200934208DD104948698022520142
:1002A00002434A610C4A012151619022FF3293427C
:1002B00003DC094B5B69012B00D07047074A536987
:1002C00007490B4053618023DB0528225A63024B08
:1002D000273A9A61F1E7C046200000200004005050
:1002E000FFEFFFFF10B5234BDA6A02200243DA6208
:1002F0005A6B20210A435A631F4B1A681F490A4050
:100300001A601968802292000A431A601A6A1C490E
:100310000A401A62196A8022D2020A431A62194BF1
:100320009A6903218A439A6199690122114399616B
:10033000196A81431962196A063081431962996802
:1003400001380143996099686930814399609968DF
:10035000203801439960196A114319620A49D96228
:1003600019681143196059690A435A61FFF76AFF16
:1003700010BDC0460010024000040050FFFCFFFF0B
:10038000FFFFF0FF0014014088D7090070B5060098
:10039000504AD36A02210B43D3624F4B19684F482E
:1003A00001401960186880214904014319605969A6
:1003B0004B4801405961D36A01210B43D36233B2E8
:1003C000012B22D0A023DB051A6846490A401A6097
:1003D00019688022D2000A431A605A6920210A4310
:1003E0005A611A68920092081A6019688022D20530
:1003F0000A431A605A693C490A405A613B4B002241
:100400009A613B48FFF780FE37E0A023DB051A68BE
:1004100034490A401A6019688022D2000A431A60DF
:100420005A6920218A435A611A68920092081A6018
:1004300019688022D2050A431A6059698022120283
:100440000A435A61DAE7294B01229A611DE00A202A
:10045000FFF75AFE0134274B9C4205DC264B1B68F4
:100460005B00F4D50135F2E7002D1BDD2348FFF7D3
:100470004BFE1E4B9B69012B18D0FFF707FF164B55
:100480001B699B0501D4012EDDD01B4B1B685B0053
:10049000ECD4002EEAD1184B1B685B00E6D4340084
:1004A0003500D8E7114B01229A61DFE7A023DB0575
:1004B0005A6920218A435A615A690B490A405A6194
:1004C0000A4B00229A61044A536905490B40536163
:1004D00070BDC0460010024000040050FFFFFFFC4A
:1004E000FFEFFFFFFFF3FFFFFF7FFFFF2000002074
:1004F000A0860100E70300001C0001401027000057
:10050000F8B5CE46474680B5FFF734FEB0E0FFF7BA
:10051000FEFD6420FFF7F8FD884B9B68002BF6D0AA
:10052000874B1A68012188468A431A60854C2268E5
:1005300085490A402260854A9146126884490A40EA
:1005400049460A60834E326883490A403260316806
:10055000C02212020A433260804D6A6B41460A4350
:100560006A637F4F396A7F4A0A433A621A687E4952
:100570000A401A6019688022D2000A431A6019687A
:100580007020814319601A6802431A60196880223A
:1005900012020A431A601A6841460A431A60FFF7BA
:1005A000A1FE0020FFF7F2FE73692022134373615E
:1005B0006E490B68404683430B606D490B6883436B
:1005C0000B606B6B93436B63AB6B10218B43AB6323
:1005D0003268684B1A4032606A6B434602436A6372
:1005E0003A69EF339A433A613B690B433B614B46AF
:1005F0001B68802213434A461360A26880239B0035
:100600001A43A260E2685C490A40E2602268134330
:1006100023604A4B0022DA6104E0FFF778FD642092
:10062000FFF772FD454BDB69002BF6D0454D2B687B
:10063000514E33402B60454A136880218B43136031
:100640003E4B00225A61434C626980235B01134395
:1006500063614A48FFF758FD2B6833402B6063699C
:10066000202293436361FFF73DFE0120FFF78EFEDA
:10067000324A0023136153619360D3619361374918
:10068000CB6A02200343CB62324B18683C4C2040BB
:1006900018601C68802040042043186058692C4C66
:1006A000204058611868374C204018601C68802032
:1006B000C0002043186058692024A04358611C687A
:1006C000C025AC431C6018682843186018682E4C7D
:1006D000204018601C68C0208001204318604B6BCC
:1006E000012003434B63164B19681F4C21401960CE
:1006F0001C68C0218900214319601C68503DAC432F
:100700001C601968294319601C6880210902214373
:1007100019601968014319600A4B1C688021C903DC
:100720000C431C60DC682143D96008490C688023B5
:100730005B0123430B60D060EEE6C0462000002042
:100740001C00014000040140FFFFBFFF00E100E08A
:10075000FFEFFFFF00040050FF3FFFFF00100240CB
:100760000000014001100000FFF8FFFF00140140ED
:1007700000100040FFFFF3FFFFFDFFFF1027000008
:10078000FFFFFFFCFFF3FFFFFFCFFFFF10B5074A9E
:10079000516980235B010B435361FFF7A3FD0020E8
:1007A000FFF7F4FD024B0222DA6010BD0004005096
:1007B000200000207047FEE77047704710B5FFF734
:1007C000A7FC10BD70B52D4B1B68022B02D0012B6E
:1007D0002BD070BD2A4B1B68012B13D0294B1A68F4
:1007E00029490A401A605969802292030A435A61D2
:1007F000264A136801331360254A136801210B430D
:100800001360E6E71F4B1A6822490A401A605969CB
:100810008022D2030A435A611968802292030A4354
:100820001A60174B00221A60D3E7164B1A68194951
:100830000A401A6059698022D2030A435A6100248F
:10084000FA25AD0003E00A20FFF75EFC0134124BED
:100850009C4205DC114B1B685B00F4D5013DF2E7BF
:10086000633B9D4202DD0E4B01221A60054A11686E
:100870008023DB030B431360ABE7C0462C00002052
:100880000000002000040140FFFFDFFF40000020C7
:1008900000100040FFFFBFFFE70300001C00014005
:1008A0002800002010B5354A136901218B431361DC
:1008B000334B5B68002B18D1314B9B68092B03DC51
:1008C00001332F4A936010BD2C490B6801229343DA
:1008D0000B602C4B1A602C4A11688023DB030B43FE
:1008E0001360274B00229A60EDE7012B20D0022BEA
:1008F000E9D1264B1B685B0035D5214AD3685B00E4
:10090000D3601F4A136901331361D268013231D0B9
:10091000962252009342D6DD184A136801218B4378
:100920001360194A11688023DB030B431360CAE785
:10093000174B596A0B015B1A9B005B185B08154A41
:100940001360154A1268013A51424A410021134886
:1009500098424941114202D0114B01221A600C4BBE
:1009600000225A62AFE7064AD3685B0001210B43BD
:10097000D360C6E7FFF70AFFA5E7C04600100040B6
:100980004000002000000020000401401C00014045
:100990000014014030000020340000205702000005
:1009A000380000207047000070B5304B5B691B04B5
:1009B0001ED52E4A516980231B020B4353612C4BD9
:1009C0001A6801321A60D3009B18DB009B1ADB0007
:1009D0009B189A009B1A274A94466344264A9342DE
:1009E00005DC264A51698023DB010B43536170BD4E
:1009F0001E4B5B699B0413D41C4B5B699B05F6D5AE
:100A00001A4B5969802292000A435A611A681C499C
:100A10000A401A600125002D1DDD0024002512E08A
:100A2000124A516980239B010B435361104B0022F2
:100A30001A60124A536913490B405361D7E70A20E1
:100A4000FFF762FB0134632CE5DC0F4B1B699B0550
:100A5000F5D40135F3E70D4B01221A60034A116802
:100A600080239B000B431360C1E7C0460004014094
:100A700020000020007519031871190300080050A8
:100A8000FFFDFFFFFFBFFFFF000400503C00002000
:100A900070477047104B1968802252000A431A6051
:100AA000DA680E490A40DA601A680D490A401A608D
:100AB0009A6801218A439A601A680A490A401A60B2
:100AC000DA6809490A40DA6000221A61074B80227D
:100AD00012059A607047C046001002400C40FF8823
:100AE000F6FFF6FEFFFFFBFFFFFF02FF00ED00E059
:100AF0000D488546002103E00C4B5B584350043100
:100B00000B480C4B42189A42F6D30B4A02E00023E2
:100B100013600432094B9A42F9D3FFF7BBFF00F090
:100B200011F8FFF7EDFCFEE700200020AC0B0008F9
:100B300000000020040000200400002058000020D5
:100B4000FEE7000070B500260C4D0D4C641BA41090
:100B5000A64209D1002600F019F80A4D0A4C641B80
:100B6000A410A64205D170BDB300EB5898470136DA
:100B7000EEE7B300EB5898470136F2E7A40B000804
:100B8000A40B0008A40B0008A80B0008F8B5C04689
:100B9000F8BC08BC9E467047F8B5C046F8BC08BC17
:040BA0009E467047B6
:040BA400E90000085C
:040BA800C100000880
:040BAC000100000044
:0400000508000AF1F4
:00000001FF
