:020000040800F2
:10000000002000201D100008E90C0008EB0C00087F
:1000100000000000000000000000000000000000E0
:10002000000000000000000000000000ED0C0008CF
:100030000000000000000000EF0C0008F10C0008B8
:100040006D1000086D1000086D1000086D1000089C
:100050006D1000086D1000086D1000087D0E00087E
:100060006D1000086D1000086D1000086D1000087C
:10007000F90C00086D100008000000006D10000869
:1000800000000000D90D0008000000000000000082
:100090006D100008000000006D1000086D100008D1
:1000A0006D1000086D1000086D1000086D1000083C
:1000B0006D1000086D1000086D1000086D1000082C
:1000C00010B5064C2378002B07D1054B002B02D02E
:1000D000044800E000BF0123237010BD040000208D
:1000E00000000000B8100008044B10B5002B03D02E
:1000F0000349044800E000BF10BDC04600000000F6
:1001000008000020B81000085338FDDA704730BFEF
:1001100003460B437FD4002243088B4274D3030968
:100120008B425FD3030A8B4244D3030B8B4228D309
:10013000030C8B420DD3FF22090212BA030C8B422F
:1001400002D31212090265D0030B8B4219D300E0CF
:10015000090AC30B8B4201D3CB03C01A5241830B54
:100160008B4201D38B03C01A5241430B8B4201D304
:100170004B03C01A5241030B8B4201D30B03C01A2D
:100180005241C30A8B4201D3CB02C01A5241830AA7
:100190008B4201D38B02C01A5241430A8B4201D3D6
:1001A0004B02C01A5241030A8B4201D30B02C01A00
:1001B0005241CDD2C3098B4201D3CB01C01A524167
:1001C00083098B4201D38B01C01A524143098B42F0
:1001D00001D34B01C01A524103098B4201D30B01D9
:1001E000C01A5241C3088B4201D3CB00C01A5241FE
:1001F00083088B4201D38B00C01A524143088B42C3
:1002000001D34B00C01A5241411A00D2014652415B
:10021000104670475DE0CA0F00D04942031000D37A
:100220004042534000229C4603098B422DD3030ACF
:100230008B4212D3FC22890112BA030A8B420CD3DF
:10024000890192118B4208D3890192118B4204D308
:1002500089013AD0921100E08909C3098B4201D388
:10026000CB01C01A524183098B4201D38B01C01AC2
:10027000524143098B4201D34B01C01A5241030939
:100280008B4201D30B01C01A5241C3088B4201D3E8
:10029000CB00C01A524183088B4201D38B00C01A95
:1002A0005241D9D243088B4201D34B00C01A52416C
:1002B000411A00D20146634652415B10104601D3F9
:1002C0004042002B00D54942704763465B1000D383
:1002D000404201B5002000F005F802BD0029F8D029
:1002E00016E770477047C046024A1368013313602F
:1002F0007047C046580000200E4B9B69DB07FBD4BB
:100300000C4B5B68DB0704D50A4B0B4ADA600B4ADF
:10031000DA600B4B1A680B4B1A600B4A12685A6072
:10032000044B9B69DB07FBD4024A536801210B4352
:100330005360704700200240EFCDAB8905040302F3
:1003400004000808200000200800080870B582B0EA
:10035000384B1A68D3009B18DB009B1ADB009B18F4
:100360009800181A344B9C4660443449FFF7D0FE7D
:10037000334B1B681C0E1902090E1A04120E1B06C1
:100380001B0E73256E46357006357570B07064208F
:10039000F07034717171B271F3712A4AD36A01211C
:1003A0000B43D362A023DB0519682748014019607D
:1003B0001868A021890301431960596A2348014044
:1003C0005962596A402001435962586A8021C90024
:1003D00001435962516B8023DB010B4353631C4B78
:1003E0001222DA601A6809210A431A60002208E022
:1003F0006B46995C164B9962154BDB695B06FBD526
:100400000132072AF4DD124A136824210B431360DA
:100410000C4B596A8022D2010A435A62596B0D482B
:10042000014059635A6A02405A62024B00229A60A4
:1004300002B070BD200000200075190340EF0700D6
:100440004400002000100240FFFFC3FF0FF0FFFF39
:1004500000380140FFBFFFFFF8B5FFF74DFF274A07
:10046000536B01263343536325494B6925480340A9
:100470004B614B698024A40123434B61D36A042060
:100480000343D362204803689B009B0803601F4B13
:1004900080251D601E4BDF6880252D022F43DF6005
:1004A0001F683D431D601B4DEE6005681A4F3D40BF
:1004B0000560076880256D053D4305604569174F58
:1004C0003D404561506B304350634869F025A84377
:1004D00048614869E03D28434861D16A02200143F0
:1004E000D1620F490A680F4802400A60DA68224365
:1004F000DA601A6814431C60F8BDC0460010024060
:1005000000000140FF0FFFFF0008005000E100E085
:100510000004014020000020FFFFFFCFFFBFFFFFCE
:1005200000040050FFFFFFF30C4B00221A61012171
:100530000B4B19600B4A936B1020034393630A4AD9
:10054000106880239B0203431360084BDA680A4358
:10055000DA601A680A431A607047C046200000201B
:10056000480000200010024000E100E000100040C0
:10057000114B1B69AF229200934208DD0F49486975
:100580008022520102434A610B4A01215161632BCF
:1005900003DC094B5B69012B00D07047074A5369A4
:1005A00007490B4053618023DB0528225A63024B25
:1005B000273A9A61F1E7C04620000020000400506D
:1005C000FFEFFFFF10B5234BDA6A02200243DA6225
:1005D0005A6B20210A435A631F4B1A681F490A406D
:1005E0001A601968802292000A431A601A6A1C492C
:1005F0000A401A62196A8022D2020A431A62194B0F
:100600009A6903218A439A61996901221143996188
:10061000196A81431962196A06308143196299681F
:1006200001380143996099686930814399609968FC
:10063000203801439960196A114319620A49D96245
:1006400019681143196059690A435A61FFF76CFF31
:1006500010BDC0460010024000040050FFFCFFFF28
:10066000FFFFF0FF0014014088D7090070B50600B5
:100670004E4AD36A02210B43D3624D4B19684D4851
:1006800001401960186880214904014319605969C3
:10069000494801405961D36A01210B43D36233B207
:1006A000012B22D0A023DB051A6844490A401A60B6
:1006B00019688022D2000A431A605A6920210A432D
:1006C0005A611A68920092081A6019688022D2054D
:1006D0000A431A605A693A490A405A61394B002262
:1006E0009A613948FFF710FD34E0A023DB051A6852
:1006F00032490A401A6019688022D2000A431A60FF
:100700005A6920218A435A611A68920092081A6035
:1007100019688022D2050A431A60596980221202A0
:100720000A435A61DAE7274B01229A611AE00A204C
:10073000FFF7EAFC0134254B9C4205DC244B1B6887
:100740005B00F4D50135F2E7002D18DD1D4B9B69E8
:10075000012B18D0FFF70CFF154B1B699B0501D42B
:10076000012EE0D01A4B1B685B00EFD4002EEDD1B8
:10077000174B1B685B00E9D434003500DBE7114BF5
:1007800001229A61E2E7A023DB055A6920218A430E
:100790005A615A690A490A405A610A4B00229A6111
:1007A000034A536904490B40536170BD0010024075
:1007B00000040050FFFFFFFCFFEFFFFFFFF3FFFF10
:1007C000FF7FFFFF20000020A0860100E70300005C
:1007D0001C00014030B5002813D1474A936B10210B
:1007E0008B439363454A13680F398B431360444B23
:1007F0001A6844490A401A601A6843490A401A6054
:1008000030BD3D4AD36A02210B43D3623F4B186887
:10081000C024A043186019682143196019683C4836
:10082000014019601868C021890101431960A023A3
:10083000DB0519683748014019601968C02080003D
:1008400001431960536B01210B435363324B1C6806
:10085000324D2C401C601C68204318601C687025B9
:10086000AC431C601868284318601C688020000294
:1008700020431860186808431860294B1C688020C2
:1008800040002043186018683024A043186018689E
:10089000103C204318601868224C204018601868EB
:1008A00008431860936B1020034393631E4A10683B
:1008B00080239B0203431360114B1C688020C003FC
:1008C00004431C609C6820439860DC68802080039F
:1008D0002043D86018680C4C2040186010688023B2
:1008E0005B0103431360114B00221A60034AD36873
:1008F0001943D16084E7C046001002400010004058
:1009000000040140FFFFBFFFFFFFDFFF00040050B6
:10091000FFCFFFFFFFFCFFFF1C000140FFF8FFFFC0
:1009200018000140FF7FFFFF00E100E048000020C9
:10093000F8B5DE4657464E464546E0B54D4D2B6868
:100940004D4A13402B604D4B98461B6880229346BE
:100950009343424613604A4E00277761494C6369CE
:10096000802252019146134363612B68464A9246A6
:1009700013402B600020FFF72DFF63692022934373
:100980006361FFF71FFE0120FFF770FE376177619B
:10099000F7613762B7612268C0218A432260236809
:1009A0000B4323602368394A134023602268C02325
:1009B0009B011343236036494B6B012213434B6366
:1009C000344B18683449084018601968C02080000A
:1009D0000843186018687021884318601868084335
:1009E00018601968802000020843186018681043D6
:1009F000186028688023DB0318432860E8680343F5
:100A0000EB6043461B6849460B4341460B60236835
:100A10002248034023601E494B6B13434B63204B1A
:100A200019690F20814319611969114319614346FE
:100A30001B6859460B4341460B60A96880235B0045
:100A40001943A960E96850460140E96029680B43F1
:100A50002B60F260B76063691F329343636163691F
:100A6000104A134063613CBC90469946A246AB468F
:100A7000F8BDC04600040140FFFDFFFF00E100E0BB
:100A80002000002000040050FFFEFFFFFFCFFFFF0B
:100A9000001002401C000140FFF8FFFFFFFFFCFFB9
:100AA00000000140FFEFFFFFF8B5DE4657464E4617
:100AB0004546E0B54D4B1A68012188468A431A60C5
:100AC0004B4D2A684B490A402A604B4A91461268AE
:100AD0004A498A460A4049460A602A6848490A4003
:100AE0002A60484C226848490A4022602168C02296
:100AF00012020A432260454E726B41460A437263FA
:100B0000434F396A434A0A433A621A6842490A40E3
:100B10001A6019688022D2000A431A60196870208E
:100B2000814319601A6802431A6019688022120210
:100B30000A431A601A6841460A431A60FFF742FDE9
:100B40000020FFF793FD63692022934613436361FE
:100B5000324A136841468B431360314A13688B4312
:100B60001360736B5A4693437363B36B0F318B43BC
:100B7000B36323682B4A13402360726B43461A43C6
:100B800072633A69EF339A433A613B690B433B61C5
:100B90004B461B68802213434A461360AA68802391
:100BA0009B001A43AA60EA681F490A40EA602A6863
:100BB00013432B602A6880235B0013432B601B4B7D
:100BC00000221A629A600232DA600120FFF702FE08
:100BD00063695A4693436361636952461340636194
:100BE0003CBC90469946A246AB46F8BD1C0001406D
:100BF00000040140FFFFBFFF00E100E0FFEFFFFF47
:100C0000FFFEFFFF00040050FF3FFFFF0010024007
:100C10000000014001100000FFF8FFFF0014014038
:100C200000100040FFFFF3FFFFFDFFFF200000204A
:100C300010B5264AD36A02210B43D362244B1A68AB
:100C400024490A401A601968802252040A431A6033
:100C50005A6921490A405A611A6820490A401A60B3
:100C600019688022D2000A431A605A6920218A43F7
:100C70005A61FFF7F1FBFFF75BFE06E0184A1369C4
:100C800004218B431361FFF742FA164BDB69002BFB
:100C900006D1144B9B68012BF0D1FFF757FBEDE712
:100CA000FFF702FF06E00E4A136904218B4313612C
:100CB000FFF72DFA0B4B1B6A002BDCD1094B9B680D
:100CC000012BF0D1FFF742FBEDE7C04600100240D8
:100CD00000040050FFFFFFFCFFEFFFFFFFF3FFFFEB
:100CE00000ED00E0200000207047FEE770477047ED
:100CF00010B5FFF7F9FA10BD70B52D4B1B68022B2C
:100D000002D0012B2BD070BD2A4B1B68012B13D0B6
:100D1000294B1A6829490A401A60596980229203AE
:100D20000A435A61264A136801331360254A13683F
:100D300001210B431360E6E71F4B1A6822490A4062
:100D40001A6059698022D2030A435A6119688022C5
:100D500092030A431A60174B00221A60D3E7164B1E
:100D60001A6819490A401A6059698022D2030A4355
:100D70005A610024FA25AD0003E00A20FFF7C4F908
:100D80000134124B9C4205DC114B1B685B00F4D50F
:100D9000013DF2E7633B9D4202DD0E4B01221A60EA
:100DA000054A11688023DB030B431360ABE7C046A1
:100DB0002C0000200000002000040140FFFFDFFFA6
:100DC0004400002000100040FFFFBFFFE7030000C9
:100DD0001C0001403C0000201F4A136901218B4385
:100DE00013611E4B5B68002B18D11C4B9B68092BB1
:100DF00003DC0133194A936012E017490B680122A2
:100E000093430B60164B1A60164A11688023DB036C
:100E10000B431360114B00229A6001E0012B00D0BC
:100E20007047114B596A0B015B1A9B005B185B08FA
:100E30000E4A13600E4A1268013A51424A4100219B
:100E40000C4898424941114202D00B4B01221A60D2
:100E5000054B00225A62E3E70010004044000020E6
:100E60000000002000040140001401403000002078
:100E700034000020570200003800002070B5454BB8
:100E80005B691B041ED5434A516980231B020B4337
:100E90005361414B1A6801321A60D3009B18DB0082
:100EA0009B1ADB009B189A009B1A3C4A94466344A9
:100EB0003B4A934205DC3B4A51698023DB010B43EB
:100EC000536170BD334B5B699B0413D4314B5B6939
:100ED0009B0534D52F4B5969802292000A435A61F1
:100EE0001A6831490A401A600125002D1DDD0024D1
:100EF000002512E0274A516980239B010B4353616F
:100F0000254B00221A60274A536928490B40536138
:100F1000D7E70A20FFF7F8F80134632CE5DC244B0F
:100F20001B699B05F5D40135F3E7224B01221A60BA
:100F3000184A116880239B000B431360C1E7154BCF
:100F40005B69DB05BDD5134B5969802252000A430A
:100F50005A611A6818490A401A600125002D0EDDF1
:100F60000024002503E00A20FFF7CEF80134632CAB
:100F7000F4DC0F4B1B69DB05F5D40135F3E70F4BB0
:100F800001221A60034A116880235B000B4313603F
:100F900097E7C046000401402000002000751903B7
:100FA0008096980000080050FFFDFFFFFFBFFFFF85
:100FB0000004005040000020FFFEFFFF280000203A
:100FC000104B1968802252000A431A60DA680E49F1
:100FD0000A40DA601A680D490A401A609A680121CD
:100FE0008A439A601A680A490A401A60DA6809490D
:100FF0000A40DA6000221A61074B802212059A60CB
:101000007047C046001002400C40FF88F6FFF6FE15
:10101000FFFFFBFFFFFF02FF00ED00E00D488546EC
:10102000002103E00C4B5B58435004310B480C4B40
:1010300042189A42F6D30B4A02E0002313600432AE
:10104000094B9A42F9D3FFF7BBFF00F011F8FFF705
:10105000EFFDFEE700200020D8100008000000206F
:1010600004000020040000205C000020FEE70000D7
:1010700070B500260C4D0D4C641BA410A64209D17E
:10108000002600F019F80A4D0A4C641BA410A64271
:1010900005D170BDB300EB5898470136EEE7B300B9
:1010A000EB5898470136F2E7D0100008D01000083E
:1010B000D0100008D4100008F8B5C046F8BC08BC31
:1010C0009E467047F8B5C046F8BC08BC9E467047BF
:0410D000E90000082B
:0410D400C10000084F
:0410D8000100000013
:040000050800101DC2
:00000001FF
