:020000040800F2
:100000000020002009090008710500087305000898
:1000100000000000000000000000000000000000E0
:10002000000000000000000000000000750500084E
:1000300000000000000000007705000879050008B6
:100040005909000859090008590900085909000808
:1000500059090008AB080008A9080008650700084E
:1000600059090008590900085909000859090008E8
:10007000810500085909000800000000590900081E
:100080000000000061060008000000000000000001
:100090005909000800000000590900085909000822
:1000A00059090008590900085909000861070008A2
:1000B0005909000859090008590900085909000898
:1000C00010B5064C2378002B07D1054B002B02D02E
:1000D000044800E000BF0123237010BD040000208D
:1000E00000000000A4090008044B10B5002B03D049
:1000F0000349044800E000BF10BDC04600000000F6
:1001000008000020A40900085338FDDA704730BF0A
:10011000024A1368013313607047C046580000203C
:100120000C4B00225A6101210B4B19600B4A936B57
:100130001020034393630A4A106880239B02034301
:100140001360084BDA680A43DA601A680A431A60D7
:100150007047C046200000204800002000100240E8
:1001600000E100E000100040114B5B69AF229200FB
:10017000934208DD0F4948698022520102434A61D7
:100180000B4A01219161632B03DC094B9B69012B15
:1001900000D07047074A536907490B4053618023D9
:1001A000DB0528225A63024B273ADA61F1E7C046A1
:1001B0002000002000040050FFEFFFFF10B5234B8C
:1001C000DA6A02200243DA625A6B20210A435A6338
:1001D0001F4B1A681F490A401A6019688022920052
:1001E0000A431A601A6A1C490A401A62196A802274
:1001F000D2020A431A62194B9A6903218A439A610F
:100200009969012211439961196A81431962196A36
:1002100006308143196299680138014399609968F1
:100220006930814399609968203801439960196A5F
:10023000114319620A49D962196811431960596951
:100240000A435A61FFF76CFF10BDC0460010024020
:1002500000040050FFFCFFFFFFFFF0FF001401400F
:1002600088D7090070B506004E4AD36A02210B43B5
:10027000D3624D4B19684D480140196018688021C0
:100280004904014319605969494801405961D36AD9
:1002900001210B43D36233B2012B22D0A023DB0513
:1002A0001A6844490A401A6019688022D2000A4339
:1002B0001A605A6920210A435A611A68920092080A
:1002C0001A6019688022D2050A431A605A693A49AD
:1002D0000A405A61394B0022DA613948FFF714FFAE
:1002E00034E0A023DB051A6832490A401A60196815
:1002F0008022D2000A431A605A6920218A435A6137
:100300001A68920092081A6019688022D2050A437E
:100310001A605969802212020A435A61DAE7274BB0
:100320000122DA611AE00A20FFF7EEFE0134254BC4
:100330009C4205DC244B1B685B00F4D50135F2E7D9
:10034000002D18DD1D4BDB69012B18D0FFF70CFFCA
:10035000154B1B699B0501D4012EE0D01A4B1B687D
:100360005B00EFD4002EEDD1174B1B685B00E9D486
:1003700034003500DBE7114B0122DA61E2E7A0230C
:10038000DB055A6920218A435A615A690A490A40A1
:100390005A610A4B0022DA61034A536904490B404F
:1003A000536170BD0010024000040050FFFFFFFCCD
:1003B000FFEFFFFFFFF3FFFFFF7FFFFF20000020A5
:1003C000A0860100E70300001C00014010B5074AA9
:1003D000516980235B010B435361FFF7EFFE00205F
:1003E000FFF740FF024B02221A6110BD00040050CB
:1003F00020000020F8B54D4AD36A01200343D362A0
:10040000A023DB0519684A4C214019601C68802133
:10041000C900214319605969202529435961D16ACE
:1004200002242143D16243490E68C027BE430E60B7
:100430000C683C430C600C683F4E34400C600E6806
:10044000C024A40134430C6019683C4C214019605D
:100450001C68C02189000C431C60536B0343536329
:10046000374B1C68374E34401C601C6821431960B0
:100470001C687026B4431C601968314319601C68FD
:1004800080210902214319601968014319602E4B2C
:100490001968802464000C431C601C6830218C4364
:1004A0001C601968294319601968284C214019609B
:1004B000196808431860936B10210B439363244A17
:1004C000116880239B020B431360224B1868802124
:1004D000C90308431860986801439960D86880216F
:1004E00089030143D96019681B48014019601168EC
:1004F00080235B010B431360184C2000FFF704FEC0
:100500002000FFF701FE2000FFF7FEFD2000FFF7AF
:10051000FBFDA024E405636920252B436361FFF7FD
:10052000F6FD6369AB436361E6E7C0460010024035
:10053000FFF3FFFF00040050FFCFFFFFFFFCFFFFB2
:100540001C000140FFF8FFFF18000140FF7FFFFF84
:1005500000E100E000040140FFFFDFFF809698000B
:1005600010B5024B02221A61FFF744FF2000002061
:100570007047FEE77047704710B5FFF7C9FD10BD23
:1005800070B52D4B1B68022B02D0012B2BD070BDF8
:100590002A4B1B68012B13D0294B1A6829490A40A2
:1005A0001A605969802292030A435A61264A1368E5
:1005B00001331360254A136801210B431360E6E7FA
:1005C0001F4B1A6822490A401A6059698022D203D7
:1005D0000A435A611968802292030A431A60174B32
:1005E00000221A60D3E7164B1A6819490A401A60AC
:1005F00059698022D2030A435A610024FA25AD00CA
:1006000003E00A20FFF780FD0134124B9C4205DC19
:10061000114B1B685B00F4D5013DF2E7633B9D4243
:1006200002DD0E4B01221A60054A11688023DB03AC
:100630000B431360ABE7C0463000002000000020F1
:1006400000040140FFFFDFFF4400002000100040D5
:10065000FFFFBFFFE70300001C0001402C0000204B
:1006600010B5354A136901218B431361334B5B6825
:10067000002B18D1314B9B68092B03DC01332F4A27
:10068000936010BD2C490B68012293430B602C4BE7
:100690001A602C4A11688023DB030B431360274B3D
:1006A00000229A60EDE7012B20D0022BE9D1264BE6
:1006B0001B685B0035D5214AD3685B00D3601F4AB5
:1006C000136901331361D268013231D0962252008E
:1006D0009342D6DD184A136801218B431360194AEF
:1006E00011688023DB030B431360CAE7174B596A79
:1006F0000B015B1A9B005B185B08154A1360154AD7
:100700001268013A51424A41002113489842494136
:10071000114202D0114B01221A600C4B00225A6286
:10072000AFE7064AD3685B0001210B43D360C6E7FD
:10073000FFF74CFEA5E7C046001000404400002033
:1007400000000020000401401C0001400014014092
:100750003400002038000020570200003C00002038
:100760007047000070B5454B5B691B041ED5434ABA
:10077000516980231B020B435361414B1A680132BC
:100780001A60D3009B18DB009B1ADB009B189A00B1
:100790009B1A3C4A944663443B4A934205DC3B4ADD
:1007A00051698023DB010B43536170BD334B5B699F
:1007B0009B0413D4314B5B699B0534D52F4B59698E
:1007C000802292000A435A611A6831490A401A602D
:1007D0000125002D1DDD0024002512E0274A516966
:1007E00080239B010B435361254B00221A60274A4B
:1007F000536928490B405361D7E70A20FFF784FC6F
:100800000134632CE5DC244B1B699B05F5D40135D1
:10081000F3E7224B01221A60184A116880239B00DB
:100820000B431360C1E7154B5B69DB05BDD5134B6B
:100830005969802252000A435A611A6818490A40CD
:100840001A600125002D0EDD0024002503E00A209A
:10085000FFF75AFC0134632CF4DC0F4B1B69DB05FA
:10086000F5D40135F3E70F4B01221A60034A1168F2
:1008700080235B000B43136097E7C04600040140F0
:100880002000002000751903486919030008005072
:10089000FFFDFFFFFFBFFFFF0004005040000020EE
:1008A000FFFEFFFF2800002070477047104B1968BB
:1008B000802252000A431A60DA680E490A40DA6060
:1008C0001A680D490A401A609A6801218A439A60A1
:1008D0001A680A490A401A60DA6809490A40DA6067
:1008E00000221A61074B802212059A607047C046A9
:1008F000001002400C40FF88F6FFF6FEFFFFFBFFF2
:10090000FFFF02FF00ED00E00D488546002103E0F7
:100910000C4B5B58435004310B480C4B42189A4225
:10092000F6D30B4A02E0002313600432094B9A42CB
:10093000F9D3FFF7BBFF00F011F8FFF711FEFEE758
:1009400000200020C409000800000020040000204E
:10095000040000205C000020FEE7000070B50026C7
:100960000C4D0D4C641BA410A64209D1002600F0CA
:1009700019F80A4D0A4C641BA410A64205D170BD9B
:10098000B300EB5898470136EEE7B300EB589847B1
:100990000136F2E7BC090008BC090008BC090008E0
:1009A000C0090008F8B5C046F8BC08BC9E467047B0
:0C09B000F8B5C046F8BC08BC9E46704775
:0409BC00E900000846
:0409C000C10000086A
:0409C400010000002E
:0400000508000909DD
:00000001FF
