:020000040800F2
:1000000000200020110B0008D5070008D7070008C2
:1000100000000000000000000000000000000000E0
:10002000000000000000000000000000D9070008E8
:100030000000000000000000DB070008DD070008EA
:10004000610B0008610B0008610B0008610B0008E0
:10005000610B0008B30A0008B10A0008C9090008CA
:10006000610B0008610B0008610B0008610B0008C0
:10007000E5070008610B000800000000610B0008A4
:1000800000000000C508000800000000000000009B
:10009000610B000800000000610B0008610B000804
:1000A000610B0008610B0008610B0008C50900081E
:1000B000610B0008610B0008610B0008610B000870
:1000C00010B5064C2378002B07D1054B002B02D02E
:1000D000044800E000BF0123237010BD040000208D
:1000E00000000000AC0B0008044B10B5002B03D03F
:1000F0000349044800E000BF10BDC04600000000F6
:1001000008000020AC0B00085338FDDA704730BF00
:10011000024A1368013313607047C0465400002040
:100120000E4B9B69DB07FBD40C4B5B68DB0704D5EC
:100130000A4B0B4ADA600B4ADA600B4B1A680B4B1E
:100140001A600B4A12685A60044B9B69DB07FBD4A8
:10015000024A536801210B4353607047002002405C
:10016000EFCDAB890504030204000808200000203D
:1001700008000808F8B5FFF7D3FF274A536B01269C
:100180003343536325494B69254803404B614B6911
:100190008024A40123434B61D36A04200343D36228
:1001A000204803689B009B0803601F4B80251D604F
:1001B0001E4BDF6880252D022F43DF601F683D4303
:1001C0001D601B4DEE6005681A4F3D4005600768D5
:1001D00080256D053D4305604569174F3D404561EC
:1001E000506B304350634869F025A8434861486923
:1001F000E03D28434861D16A02200143D1620F49A2
:100200000A680F4802400A60DA682243DA601A6816
:1002100014431C60F8BDC0460010024000000140BD
:10022000FF0FFFFF0008005000E100E00004014064
:1002300020000020FFFFFFCFFFBFFFFF00040050A2
:10024000FFFFFFF30C4B00221A6101210B4B1960D9
:100250000B4A936B1020034393630A4A1068802370
:100260009B0203431360084BDA680A43DA601A689A
:100270000A431A607047C046200000204400002056
:100280000010024000E100E000100040114B1B692B
:10029000AF229200934208DD0F4948698022520143
:1002A00002434A610B4A01215161632B03DC094B74
:1002B0005B69012B00D07047074A536907490B401F
:1002C00053618023DB0528225A63024B273A9A6147
:1002D000F1E7C0462000002000040050FFEFFFFFC0
:1002E00010B5234BDA6A02200243DA625A6B2021EE
:1002F0000A435A631F4B1A681F490A401A6019685B
:10030000802292000A431A601A6A1C490A401A6243
:10031000196A8022D2020A431A62194B9A69032190
:100320008A439A619969012211439961196A81434B
:100330001962196A063081431962996801380143CC
:1003400099609968693081439960996820380143C0
:100350009960196A114319620A49D96219681143EF
:10036000196059690A435A61FFF76CFF10BDC04616
:100370000010024000040050FFFCFFFFFFFFF0FFF1
:100380000014014088D7090070B506004E4AD36AB0
:1003900002210B43D3624D4B19684D48014019604F
:1003A000186880214904014319605969494801408E
:1003B0005961D36A01210B43D36233B2012B22D09E
:1003C000A023DB051A6844490A401A601968802294
:1003D000D2000A431A605A6920210A435A611A68F6
:1003E000920092081A6019688022D2050A431A60A6
:1003F0005A693A490A405A61394B00229A61394890
:10040000FFF782FE34E0A023DB051A6832490A4078
:100410001A6019688022D2000A431A605A692021A2
:100420008A435A611A68920092081A6019688022F9
:10043000D2050A431A605969802212020A435A619E
:10044000DAE7274B01229A611AE00A20FFF75CFEE7
:100450000134254B9C4205DC244B1B685B00F4D522
:100460000135F2E7002D18DD1D4B9B69012B18D0DB
:10047000FFF70CFF154B1B699B0501D4012EE0D043
:100480001A4B1B685B00EFD4002EEDD1174B1B6895
:100490005B00E9D434003500DBE7114B01229A619F
:1004A000E2E7A023DB055A6920218A435A615A6991
:1004B0000A490A405A610A4B00229A61034A536969
:1004C00004490B40536170BD00100240000400500D
:1004D000FFFFFFFCFFEFFFFFFFF3FFFFFF7FFFFFCB
:1004E00020000020A0860100E70300001C0001405E
:1004F000F0B5D6464F464646C0B5974AD36A022164
:100500000B43D362954B1A6895490A401A601968E3
:10051000802252040A431A605A6992490A405A6179
:100520001A6891490A401A6019688022D2000A4369
:100530001A605A6920218A435A61FFF71BFEBCE00A
:100540008A4A136904218B431361FFF7E0FD884B4E
:100550009B68002BF4D0874B1A68012188468A4398
:100560001A60854D2A6885490A402A60844A924665
:1005700012687C4989460A4051460A60774C2268D5
:1005800080490A4022602168C02212020A43226088
:10059000714E726B41460A4372637B4F396A7B4AE4
:1005A0000A433A621A687A490A401A601968802236
:1005B000D2000A431A6019687020814319601A68D2
:1005C00002431A601968802212020A431A601A68EC
:1005D00041460A431A60FFF783FE0020FFF7D4FE6E
:1005E00063692022134363616A490B684046834371
:1005F0000B6069490B6883430B60736B93437363B0
:10060000B36B0F308343B363236864490B402360AB
:10061000716B4346194371633969EF33994339610B
:100620003B6903433B6153461B6880210B435146A2
:100630000B60A96880239B001943A960E9685848AA
:100640000140E96029680B432B60494B0021D961C7
:1006500063699343636163694A461340636106E0DB
:10066000424A136904218B431361FFF750FD404B4D
:10067000DB69002BF4D0404D2B68494E33402B6092
:100680003F4A136880218B431360394B00225A6123
:10069000324C626980235B01134363614148FFF779
:1006A00033FD2B6833402B606369202293436361E1
:1006B000FFF716FE0120FFF767FE2D4900230B61AF
:1006C0004B618B60CB618B61244B1868C024A043C5
:1006D00018601A6822431A601A68334802401A6088
:1006E0001868C022920102431A601B48426BBF3C4B
:1006F000224342631F4A1068254D28401060156848
:10070000C02080002843106015687026B54315602E
:100710001068304310601568802000022843106084
:10072000106820431060144A15688020C0030543F8
:100730001560D5682843D0601148056880225201B1
:100740002A430260CC605A6920218A435A615A695F
:1007500004490A405A61FAE60010024000040050C1
:10076000FFFFFFFCFFEFFFFFFFF3FFFF00ED00E0E7
:10077000200000201C00014000040140FFFFBFFFDB
:1007800000E100E0FF3FFFFF00000140011000001A
:10079000FFF8FFFF0014014000100040FFFFF3FFCF
:1007A000FFFDFFFF10270000FFCFFFFF10B5074A36
:1007B000516980235B010B435361FFF791FD0020DA
:1007C000FFF7E2FD024B0222DA6010BD0004005088
:1007D000200000207047FEE77047704710B5FFF714
:1007E00097FC10BD70B52D4B1B68022B02D0012B5E
:1007F0002BD070BD2A4B1B68012B13D0294B1A68D4
:1008000029490A401A605969802292030A435A61B1
:10081000264A136801331360254A136801210B43EC
:100820001360E6E71F4B1A6822490A401A605969AB
:100830008022D2030A435A611968802292030A4334
:100840001A60174B00221A60D3E7164B1A68194931
:100850000A401A6059698022D2030A435A6100246F
:10086000FA25AD0003E00A20FFF74EFC0134124BDD
:100870009C4205DC114B1B685B00F4D5013DF2E79F
:10088000633B9D4202DD0E4B01221A60054A11684E
:100890008023DB030B431360ABE7C0462C00002032
:1008A0000000002000040140FFFFDFFF40000020A7
:1008B00000100040FFFFBFFFE70300001C000140E5
:1008C0002800002010B5354A136901218B431361BC
:1008D000334B5B68002B18D1314B9B68092B03DC31
:1008E00001332F4A936010BD2C490B6801229343BA
:1008F0000B602C4B1A602C4A11688023DB030B43DE
:100900001360274B00229A60EDE7012B20D0022BC9
:10091000E9D1264B1B685B0035D5214AD3685B00C3
:10092000D3601F4A136901331361D268013231D099
:10093000962252009342D6DD184A136801218B4358
:100940001360194A11688023DB030B431360CAE765
:10095000174B596A0B015B1A9B005B185B08154A21
:100960001360154A1268013A51424A410021134866
:1009700098424941114202D0114B01221A600C4B9E
:1009800000225A62AFE7064AD3685B0001210B439D
:10099000D360C6E7FFF70AFFA5E7C0460010004096
:1009A0004000002000000020000401401C00014025
:1009B00000140140300000203400002057020000E5
:1009C000380000207047000070B5304B5B691B0495
:1009D0001ED52E4A516980231B020B4353612C4BB9
:1009E0001A6801321A60D3009B18DB009B1ADB00E7
:1009F0009B189A009B1A274A94466344264A9342BE
:100A000005DC264A51698023DB010B43536170BD2D
:100A10001E4B5B699B0413D41C4B5B699B05F6D58D
:100A20001A4B5969802292000A435A611A681C497C
:100A30000A401A600125002D1DDD0024002512E06A
:100A4000124A516980239B010B435361104B0022D2
:100A50001A60124A536913490B405361D7E70A20C1
:100A6000FFF752FB0134632CE5DC0F4B1B699B0540
:100A7000F5D40135F3E70D4B01221A60034A1168E2
:100A800080239B000B431360C1E7C0460004014074
:100A90002000002000751903486919030008005060
:100AA000FFFDFFFFFFBFFFFF000400503C000020E0
:100AB00070477047104B1968802252000A431A6031
:100AC000DA680E490A40DA601A680D490A401A606D
:100AD0009A6801218A439A601A680A490A401A6092
:100AE000DA6809490A40DA6000221A61074B80225D
:100AF00012059A607047C046001002400C40FF8803
:100B0000F6FFF6FEFFFFFBFFFFFF02FF00ED00E038
:100B10000D488546002103E00C4B5B5843500431DF
:100B20000B480C4B42189A42F6D30B4A02E00023C2
:100B300013600432094B9A42F9D3FFF7BBFF00F070
:100B400011F8FFF7D5FCFEE700200020CC0B0008D1
:100B500000000020040000200400002058000020B5
:100B6000FEE7000070B500260C4D0D4C641BA41070
:100B7000A64209D1002600F019F80A4D0A4C641B60
:100B8000A410A64205D170BDB300EB5898470136BA
:100B9000EEE7B300EB5898470136F2E7C40B0008C4
:100BA000C40B0008C40B0008C80B0008F8B5C04609
:100BB000F8BC08BC9E467047F8B5C046F8BC08BCF7
:040BC0009E46704796
:040BC400E90000083C
:040BC800C100000860
:040BCC000100000024
:0400000508000B11D3
:00000001FF
