:020000040800F2
:1000000000200020850300081703000819030008DA
:1000100000000000000000000000000000000000E0
:100020000000000000000000000000001B030008AA
:1000300000000000000000001D0300081F0300086E
:10004000D5030008D5030008D5030008D503000830
:10005000D5030008D5030008D5030008D503000820
:10006000D5030008D5030008D5030008D503000810
:1000700027030008D503000800000000D50300088E
:1000800000000000D5030008000000000000000090
:10009000D503000800000000D5030008D5030008C0
:1000A000D5030008D5030008D5030008D5030008D0
:1000B000D5030008D5030008D5030008D5030008C0
:1000C00010B5064C2378002B07D1054B002B02D02E
:1000D000044800E000BF0123237010BD0000002091
:1000E0000000000020040008044B10B5002B03D0D2
:1000F0000349044800E000BF10BDC04600000000F6
:1001000004000020200400085338FDDA7047000086
:10011000024A1368013313607047C0461C00002078
:10012000F8B5764BD96A01221143D962A024E405BF
:100130002168734F3940216020688021C900014344
:1001400021606169202001436161996B11439963CA
:1001500023689B009B082360216880231B060B43B8
:100160002360636A1B011B096362636A2343636242
:100170008025ED050023AB622821E9626B63AB6942
:1001800040310B43AB612B6A13432B622B68473919
:100190000B432B606B691A436A615A4E3000FFF7BC
:1001A000B3FF3000FFF7B0FF3000FFF7ADFF23686B
:1001B0001F402760226880231B0113432360236AAA
:1001C000514A13402362226AA023DB0313432362B4
:1001D00023689B009B08236023681D432560626998
:1001E00080231B02134363613000FFF78DFF300053
:1001F000FFF78AFF3000FFF787FF00272025002642
:100200003FE0A023DB051A683D490A401A601968DF
:10021000802212010A431A601A6A3B490A401A6294
:10022000196AA022D2030A431A621A68920092083D
:100230001A6019688022D2050A431A60596980221F
:1002400012020A435A618023DB05196A0122914395
:1002500019621968914319602821D9625D63196890
:1002600011431960196A0A431A62262D2BDC002DEE
:1002700034DD002D3ED0012F3ED0013D2348FFF755
:1002800043FF002EBDD1A023DB051A681C490A409C
:100290001A6019688022D2000A431A605A69202124
:1002A0000A435A611A68920092081A6019688022FB
:1002B00012060A431A605A6A120112095A625A6AED
:1002C0001A435A62BFE71148FFF71EFF012E02D002
:1002D00037000126CBE700270026C8E70B48FFF7C9
:1002E00013FF0127C5E70948FFF70EFF01340E2C65
:1002F000F9DDC0E72C00FAE70135BFE70010024046
:10030000FFF3FFFF00E1F505FFFF0FFF8096980068
:1003100010B5FFF705FF7047FEE77047704710B54F
:10032000FFF7F6FE10BD7047104B1968802252008F
:100330000A431A60DA680E490A40DA601A680D4901
:100340000A401A609A6801218A439A601A680A4929
:100350000A401A60DA6809490A40DA6000221A6124
:10036000074B802212059A607047C0460010024079
:100370000C40FF88F6FFF6FEFFFFFBFFFFFF02FFCA
:1003800000ED00E00D488546002103E00C4B5B5872
:10039000435004310B480C4B42189A42F6D30B4A97
:1003A00002E0002313600432094B9A42F9D3FFF7AD
:1003B000BBFF00F011F8FFF7ABFFFEE700200020C5
:1003C0004004000800000020000000200000002081
:1003D00020000020FEE7000070B500260C4D0D4CFB
:1003E000641BA410A64209D1002600F019F80A4D9A
:1003F0000A4C641BA410A64205D170BDB300EB5893
:1004000098470136EEE7B300EB5898470136F2E71C
:100410003804000838040008380400083C040008C8
:10042000F8B5C046F8BC08BC9E467047F8B5C04653
:08043000F8BC08BC9E467047B1
:04043800E9000008CF
:04043C00C1000008F3
:040000050800038567
:00000001FF
